:020000040000FA
:100000000C9474000C949C000C949C000C949C0028
:100010000C949C000C949C000C949C000C949C00F0
:100020000C949C000C949C000C949C000C949C00E0
:100030000C949C000C949C000C949C000C949C00D0
:100040000C9407030C949C000C9477030C945103BC
:100050000C949C000C949C000C949C000C949C00B0
:100060000C949C000C949C000664EC1B3C04BC1695
:100070003E3BE5B93CC93C37C29E5A3D66049808F0
:100080003EEA69AAAA3E000000803F00000000008E
:10009000240027002A0000000000250028002B0073
:1000A00000000000230026002900040404040404C6
:1000B0000404020202020202030303030303010217
:1000C00004081020408001020408102001020408E6
:1000D00010200000000800020100000304070000D7
:1000E000000000000000DF0511241FBECFEFD8E0A4
:1000F000DEBFCDBF11E0A0E0B1E0E4E9F2E102C073
:1001000005900D92A631B107D9F721E0A6E1B1E043
:1001100001C01D92A43CB207E1F710E0C4E7D0E0B3
:1001200004C02197FE010E944209C337D107C9F7D5
:100130000E94A9030C9448090C940000FC01538D03
:10014000448D252F30E0842F90E0821B930B5417B1
:1001500010F0CF96089501970895FC01918D828D3E
:10016000981761F0A28DAE0FBF2FB11D5D968C91D7
:10017000928D9F5F9F73928F90E008958FEF9FEF16
:100180000895FC01918D828D981731F0828DE80FD2
:10019000F11D858D90E008958FEF9FEF0895FC018C
:1001A000918D228D892F90E0805C9F4F821B910959
:1001B0008F7399270895FC01A48DA80FB92FB11D45
:1001C000A35ABF4F2C91848D90E001968F7399278D
:1001D000848FA689B7892C93A089B1898C9183706B
:1001E00080648C93938D848D981306C00288F38964
:1001F000E02D80818F7D80830895EF92FF920F9391
:100200001F93CF93DF93EC0181E0888F9B8D8C8DC2
:1002100098131AC0E889F989808185FF15C09FB7B6
:10022000F894EE89FF896083E889F9898081837079
:10023000806480839FBF81E090E0DF91CF911F9128
:100240000F91FF90EF900895F62E0B8D10E00F5F49
:100250001F4F0F731127E02E8C8D8E110CC00FB61F
:1002600007FCFACFE889F989808185FFF5CFCE01B7
:100270000E94DB00F1CFEB8DEC0FFD2FF11DE35A57
:10028000FF4FF0829FB7F8940B8FEA89FB8980813A
:100290008062CFCFCF93DF93EC01888D8823B9F0B4
:1002A000AA89BB89E889F9898C9185FD03C0808181
:1002B00086FD0DC00FB607FCF7CF8C9185FFF2CFFE
:1002C000808185FFEDCFCE010E94DB00E9CFDF9179
:1002D000CF91089587E291E00E94CF0021E0892B21
:1002E00009F420E0822F089580E090E0892B29F026
:1002F0000E946A0181110C9400000895AF92BF9290
:10030000CF92DF92EF92FF920F931F93CF93DF93E1
:100310006C017B018B01040F151FEB015E01AE1810
:10032000BF08C017D10759F06991D601ED91FC9132
:100330000190F081E02DC6010995892B79F7C5015F
:10034000DF91CF911F910F91FF90EF90DF90CF90B1
:10035000BF90AF900895833081F028F4813099F0F8
:100360008230A9F008958730A9F08830C9F0843030
:10037000B1F4809180008F7D03C0809180008F77E1
:1003800080938000089584B58F7784BD089584B5E7
:100390008F7DFBCF8091B0008F778093B000089560
:1003A0008091B0008F7DF9CFCF93DF93282F30E07D
:1003B000F901EE52FF4F8491F901E254FF4FD491BD
:1003C000F901E655FF4FC491CC23A1F081110E94A1
:1003D000AB01EC2FF0E0EE0FFF1FE056FF4FA591B1
:1003E000B491EC91ED2381E090E009F480E0DF919D
:1003F000CF91089580E090E0FACF1F93CF93DF93E1
:10040000282F30E0F901EE52FF4F8491F901E254B8
:10041000FF4FD491F901E655FF4FC491CC23A9F0C9
:10042000162F81110E94AB01EC2FF0E0EE0FFF1FA1
:10043000EA56FF4FA591B4918FB7F894EC91111142
:1004400008C0D095DE23DC938FBFDF91CF911F9141
:100450000895DE2BF8CFCF93DF9390E0FC01E254B8
:10046000FF4F249186559F4FFC0184918823D1F042
:1004700090E0880F991FFC01E457FF4FA591B491BC
:10048000FC01EA56FF4FC591D491623071F49FB7D9
:10049000F8943C91822F809583238C93E8812E2BB6
:1004A00028839FBFDF91CF9108958FB7F894EC9187
:1004B0002E2B2C938FBFF6CF1F93CF93DF93182F44
:1004C000EB0161E00E942B02209739F460E0812F5C
:1004D000DF91CF911F910C94FD01CF3FD10511F415
:1004E00061E0F5CFE12FF0E0EE52FF4FE491E33011
:1004F00031F140F4E130B1F0E230E1F0C038D10543
:100500007CF7E4CFE73029F1E83059F1E430B1F776
:1005100080918000806280938000D0938B00C09394
:100520008A0004C084B5806884BDC7BDDF91CF91C7
:100530001F91089584B5806284BDC8BDF7CF8091B6
:100540008000806880938000D0938900C0938800E9
:10055000EDCF8091B00080688093B000C093B3006D
:10056000E5CF8091B00080628093B000C093B4006A
:10057000DDCF8F929F92AF92BF920F931F93CF9335
:10058000DF93CDB7DEB7A1970FB6F894DEBF0FBEED
:10059000CDBF19A2423008F44AE08E010F5D1F4F13
:1005A000842E912CB12CA12CA50194010E942B0624
:1005B000E62FB901CA01EA3044F5E05DD801EE93B7
:1005C0008D01232B242B252B79F790E080E01097C9
:1005D00069F0FD0101900020E9F73197AF014A1B56
:1005E0005B0BBD0187E291E00E947E01A1960FB6F0
:1005F000F894DEBF0FBECDBFDF91CF911F910F9159
:10060000BF90AF909F908F900895E95CD7CF1F92D5
:100610000F920FB60F9211242F933F938F939F93B6
:10062000AF93BF938091230190912401A091250164
:10063000B09126013091220123E0230F2D3758F588
:100640000196A11DB11D2093220180932301909357
:100650002401A0932501B093260180911E01909161
:100660001F01A0912001B09121010196A11DB11D92
:1006700080931E0190931F01A0932001B09321014C
:10068000BF91AF919F918F913F912F910F900FBE8E
:100690000F901F90189526E8230F0296A11DB11DFB
:1006A000D2CF1F920F920FB60F9211242F933F9328
:1006B0004F935F936F937F938F939F93AF93BF936A
:1006C000EF93FF9387E291E00E94DB00FF91EF91AF
:1006D000BF91AF919F918F917F916F915F914F915A
:1006E0003F912F910F900FBE0F901F9018951F9262
:1006F0000F920FB60F9211242F938F939F93EF9326
:10070000FF93E0913701F09138018081E0913D0144
:10071000F0913E0182FD1BC09081809140018F5F6E
:100720008F7320914101821741F0E0914001F0E088
:10073000E95DFE4F958F80934001FF91EF919F916E
:100740008F912F910F900FBE0F901F901895808161
:10075000F4CF789484B5826084BD84B5816084BD13
:1007600085B5826085BD85B5816085BD80916E004F
:10077000816080936E001092810080918100826080
:1007800080938100809181008160809381008091BD
:1007900080008160809380008091B10084608093AC
:1007A000B1008091B00081608093B00080917A00A8
:1007B000846080937A0080917A00826080937A00CE
:1007C00080917A00816080937A0080917A008068BD
:1007D00080937A001092C10061E08DE00E942B02AC
:1007E00061E08CE00E942B0261E08BE00E942B0212
:1007F00061E08AE00E942B0261E088E00E942B0207
:1008000061E087E00E942B0261E089E00E942B02F8
:1008100061E086E00E942B0262E085E00E942B02EC
:1008200062E084E00E942B0262E083E00E942B02DF
:1008300080E0282E80E0382E96E5892E95E5992EC9
:1008400095E1A92E91E4B92E80E480937C008091FB
:100850007A00806480937A0080917A0086FDFCCFD4
:10086000A0917800B09179002AE530E00E943B0920
:100870002FEF33E040E050E00E940C06CA01B901BE
:100880006D52710981099109072E000C880B990B93
:100890000E94780725E33AEF4EE85CE30E942D08BA
:1008A0006B017C0120E030E0A9010E94C90687FFAE
:1008B000EDC0C701B60190580E949A086B017C01F7
:1008C000AC019B016AE979E989E19EE30E94CE06C9
:1008D0002B013C012AE939E949E15EE30E945C060B
:1008E00029E23CE54FE05FE30E942D08A701960155
:1008F0000E942D082DEB34E743E15CE30E94CE0615
:1009000060931A0170931B0180931C0190931D0149
:100910002AE939E949E15EE3C301B2010E945D06BB
:1009200029E23CE54FE05FE30E942D08A701960114
:100930000E942D082DEB34E743E15CE30E94CE06D4
:100940006093160170931701809318019093190119
:1009500020E030E040E752E460911A0170911B0101
:1009600080911C0190911D010E942D082BED3FE00C
:1009700049EC50E40E94CE0620E030E04FE753E41B
:100980000E942D0820E030E044E353E40E94CE06AC
:100990000E944007EB016F3F710519F014F0CFEF93
:1009A000D0E0D7FF02C0D0E0C0E020E030E040E778
:1009B00052E4609116017091170180911801909195
:1009C00019010E942D082BED3FE049EC50E40E94F4
:1009D000CE0620E030E04FE753E40E942D0820E0EF
:1009E00030E044E353E40E94CE060E9440078B01AE
:1009F0006F3F710519F014F00FEF10E017FF02C000
:100A000010E000E04AE0BE010D2E000C880B990BAF
:100A10000E94B90242E050E062E171E087E291E0B9
:100A20000E947E0185E00E94D401892B09F07FC0DD
:100A300061E08DE00E94FD0160E08CE00E94FD011C
:100A400070E060E08BE00E945C02BE018AE00E94E0
:100A50005C0261E088E00E94FD0160E087E00E94A6
:100A6000FD0170E060E089E00E945C02B80186E070
:100A70000E945C022114310409F4E6CE0E946A014E
:100A8000882309F4E1CE0E940000DECE20E030E0B1
:100A9000A901C701B6010E9428081816BCF5C701B4
:100AA000B6010E949A086B017C01AC019B016AE9C6
:100AB00079E989E19EE30E94CE062B013C012AE9F7
:100AC00039E949E15EE30E945D0629E23CE54FE039
:100AD0005FE30E942D08A70196010E942D082DEBCF
:100AE00034E743E15CE30E94CE0660931A01709301
:100AF0001B0180931C0190931D012AE939E949E10A
:100B00005EE3C301B2010E945C060ACF80921A0123
:100B100090921B01A0921C01B0921D0180921601BF
:100B200090921701A0921801B092190111CF84E0A0
:100B30000E94D401892B11F561E08DE00E94FD0136
:100B400061E08CE00E94FD0170E060E08BE00E94BB
:100B50005C0270E060E08AE00E945C0261E088E094
:100B60000E94FD0161E087E00E94FD0170E060E00D
:100B700089E00E945C0270E060E079CF83E00E942F
:100B8000D401892B09F076CF60E08DE00E94FD0151
:100B900061E08CE00E94FD01BE018BE00E945C02DE
:100BA00070E060E08AE00E945C0260E088E00E9401
:100BB000FD0161E087E00E94FD01B801D9CFE7E2C5
:100BC000F1E01382128288EE93E0A0E0B0E084832B
:100BD0009583A683B78384E091E09183808385EC3D
:100BE00090E09587848784EC90E09787868780ECF7
:100BF00090E0918B808B81EC90E0938B828B82ECE8
:100C000090E0958B848B86EC90E0978B868B118E91
:100C1000128E138E148E0895052E97FB1EF40094E9
:100C20000E94230657FD07D00E942B0607FC03D025
:100C30004EF40C94230650954095309521953F4FE6
:100C40004F4F5F4F089590958095709561957F4FB8
:100C50008F4F9F4F0895A1E21A2EAA1BBB1BFD01C7
:100C60000DC0AA1FBB1FEE1FFF1FA217B307E4078B
:100C7000F50720F0A21BB30BE40BF50B661F771FE3
:100C8000881F991F1A9469F76095709580959095C3
:100C90009B01AC01BD01CF010895A29FB001B39F9C
:100CA000C001A39F700D811D1124911DB29F700D75
:100CB000811D1124911D08955058BB27AA270E9419
:100CC00074060C94EE070E94E00738F00E94E707D4
:100CD00020F039F49F3F19F426F40C94DD070EF44C
:100CE000E095E7FB0C94D707E92F0E94FF0758F324
:100CF000BA17620773078407950720F079F4A6F501
:100D00000C9421080EF4E0950B2EBA2FA02D0B01A8
:100D1000B90190010C01CA01A0011124FF27591B40
:100D200099F0593F50F4503E68F11A16F040A22F46
:100D3000232F342F4427585FF3CF469537952795B7
:100D4000A795F0405395C9F77EF41F16BA0B620BB6
:100D5000730B840BBAF09150A1F0FF0FBB1F661FFD
:100D6000771F881FC2F70EC0BA0F621F731F841F40
:100D700048F4879577956795B795F7959E3F08F066
:100D8000B0CF9395880F08F09927EE0F9795879528
:100D900008950E94B30708F481E008950E94E206D6
:100DA0000C94EE070E94E70758F00E94E00740F01D
:100DB00029F45F3F29F00C94D70751110C942208B5
:100DC0000C94DD070E94FF0768F39923B1F35523C4
:100DD00091F3951B550BBB27AA276217730784074E
:100DE00038F09F5F5F4F220F331F441FAA1FA9F3E4
:100DF00035D00E2E3AF0E0E832D091505040E695D2
:100E0000001CCAF72BD0FE2F29D0660F771F881F32
:100E1000BB1F261737074807AB07B0E809F0BB0B25
:100E2000802DBF01FF2793585F4F3AF09E3F510539
:100E300078F00C94D7070C9422085F3FE4F3983EB7
:100E4000D4F3869577956795B795F7959F5FC9F722
:100E5000880F911D9695879597F90895E1E0660FA3
:100E6000771F881FBB1F621773078407BA0720F01C
:100E7000621B730B840BBA0BEE1F88F7E095089585
:100E80000E9447076894B1110C94220808950E94AB
:100E9000070888F09F5798F0B92F9927B751B0F0FD
:100EA000E1F0660F771F881F991F1AF0BA95C9F7EE
:100EB00014C0B13091F00E942108B1E008950C9463
:100EC0002108672F782F8827B85F39F0B93FCCF316
:100ED000869577956795B395D9F73EF4909580956B
:100EE000709561957F4F8F4F9F4F0895E89409C08B
:100EF00097FB3EF490958095709561957F4F8F4F4D
:100F00009F4F9923A9F0F92F96E9BB279395F69562
:100F1000879577956795B795F111F8CFFAF4BB0FE0
:100F200011F460FF1BC06F5F7F4F8F4F9F4F16C044
:100F3000882311F096E911C0772321F09EE8872FCE
:100F4000762F05C0662371F096E8862F70E060E08A
:100F50002AF09A95660F771F881FDAF7880F969503
:100F6000879597F90895990F0008550FAA0BE0E8A7
:100F7000FEEF16161706E807F907C0F0121613065B
:100F8000E407F50798F0621B730B840B950B39F49B
:100F90000A2661F0232B242B252B21F408950A2601
:100FA00009F4A140A6958FEF811D811D089597F941
:100FB0009F6780E870E060E008959FEF80EC0895FF
:100FC00000240A9416161706180609060895002428
:100FD0000A9412161306140605060895092E0394A2
:100FE000000C11F4882352F0BB0F40F4BF2B11F416
:100FF00060FF04C06F5F7F4F8F4F9F4F089557FD75
:101000009058440F551F59F05F3F71F04795880F76
:1010100097FB991F61F09F3F79F08795089512160D
:1010200013061406551FF2CF4695F1DF08C01616B9
:1010300017061806991FF1CF86957105610508946A
:101040000895E894BB2766277727CB0197F9089581
:101050000E94B30708F48FEF08950E9440080C9493
:10106000EE070E94E00738F00E94E70720F0952382
:1010700011F00C94D7070C94DD0711240C9422086E
:101080000E94FF0770F3959FC1F3950F50E0551F25
:10109000629FF001729FBB27F00DB11D639FAA27CD
:1010A000F00DB11DAA1F649F6627B00DA11D661F1C
:1010B000829F2227B00DA11D621F739FB00DA11D3D
:1010C000621F839FA00D611D221F749F3327A00DF7
:1010D000611D231F849F600D211D822F762F6A2F93
:1010E00011249F5750409AF0F1F088234AF0EE0FF8
:1010F000FF1FBB1F661F771F881F91505040A9F725
:101100009E3F510580F00C94D7070C9422085F3F56
:10111000E4F3983ED4F3869577956795B795F79560
:10112000E7959F5FC1F7FE2B880F911D96958795D8
:1011300097F90895DF93D92F0E94D508E695D795A2
:101140002AED3FE049E45FE3B33A6207730784079F
:101150009507D7953AF0A2EA49EC90680E94740688
:101160000E94EE07E8E6F0E00E94BF08DD0F13F0F2
:101170000E94FE08DD0F0BF49058DF9108959F93B5
:101180008F937F936F93FF93EF939B01AC010E942A
:101190002D08EF91FF910E9414092F913F914F91DB
:1011A0005F910C942D080C94DD070E940708D8F37A
:1011B000E894E0E0BB279F57F0F02AED3FE049ECD0
:1011C00006C0EE0FBB0F661F771F881F28F0B23ACC
:1011D00062077307840728F0B25A620B730B840B03
:1011E000E3959A9572F7803830F49A95BB0F661F95
:1011F000771F881FD2F790480C9408099B01AC0117
:1012000060E070E080E89FE30C94CE069F3F31F0F1
:10121000915020F4879577956795B795880F911D24
:101220009695879597F90895DF93CF931F930F9322
:10123000FF92EF92DF927B018C01689406C0DA2E58
:10124000EF010E944008FE01E894A5912591359197
:1012500045915591A6F3EF010E947406FE01970196
:10126000A801DA9469F7DF90EF90FF900F911F913A
:10127000CF91DF9108950E944D06B7FF0895821B1C
:10128000930B0895EE0FFF1F0590F491E02D099444
:10129000F894FFCF00000000FD007E019E004A018F
:0A12A000CF00AD00C1000D0A0000F0
:107E0000112484B714BE81FFF0D085E080938100F7
:107E100082E08093C00088E18093C10086E0809377
:107E2000C20080E18093C4008EE0C9D0259A86E02C
:107E300020E33CEF91E0309385002093840096BBD3
:107E4000B09BFECF1D9AA8958150A9F7CC24DD24C4
:107E500088248394B5E0AB2EA1E19A2EF3E0BF2EE7
:107E6000A2D0813461F49FD0082FAFD0023811F036
:107E7000013811F484E001C083E08DD089C08234E0
:107E800011F484E103C0853419F485E0A6D080C0E4
:107E9000853579F488D0E82EFF2485D0082F10E0AE
:107EA000102F00270E291F29000F111F8ED06801E7
:107EB0006FC0863521F484E090D080E0DECF843638
:107EC00009F040C070D06FD0082F6DD080E0C81688
:107ED00080E7D80618F4F601B7BEE895C0E0D1E017
:107EE00062D089930C17E1F7F0E0CF16F0E7DF06D8
:107EF00018F0F601B7BEE89568D007B600FCFDCFD4
:107F0000A601A0E0B1E02C9130E011968C91119780
:107F100090E0982F8827822B932B1296FA010C0160
:107F200087BEE89511244E5F5F4FF1E0A038BF0790
:107F300051F7F601A7BEE89507B600FCFDCF97BE46
:107F4000E89526C08437B1F42ED02DD0F82E2BD052
:107F50003CD0F601EF2C8F010F5F1F4F84911BD097
:107F6000EA94F801C1F70894C11CD11CFA94CF0C13
:107F7000D11C0EC0853739F428D08EE10CD085E9AC
:107F80000AD08FE07ACF813511F488E018D01DD067
:107F900080E101D065CF982F8091C00085FFFCCF94
:107FA0009093C60008958091C00087FFFCCF809118
:107FB000C00084FD01C0A8958091C6000895E0E648
:107FC000F0E098E1908380830895EDDF803219F02E
:107FD00088E0F5DFFFCF84E1DECF1F93182FE3DFCA
:107FE0001150E9F7F2DF1F91089580E0E8DFEE27F6
:047FF000FF270994CA
:027FFE00040479
:00000001FF
