:100000000C9462000C9427040C9400040C948A0055
:100010000C948A000C948A000C948A000C948A0038
:100020000C948A000C948A000C948A000C948A0028
:100030000C948A000C948A000C948A000C948A0018
:100040000C94B6030C948A000C9484030C945E0305
:100050000C948A000C948A000C948A000C948A00F8
:100060000C948A000C948A000000000024002700F1
:100070002A0000000000250028002B0000000000DE
:1000800023002600290004040404040404040202DA
:100090000202020203030303030301020408102007
:1000A0004080010204081020010204081020000012
:1000B0000008000201000003040700000000000027
:1000C0000000670611241FBECFEFD8E0DEBFCDBF12
:1000D00011E0A0E0B1E0EAE7F1E102C005900D9285
:1000E000A638B107D9F722E0A6E8B1E001C01D9219
:1000F000A433B207E1F710E0C2E6D0E004C02197D4
:10010000FE010E94B508C136D107C9F70E944E040E
:100110000C94BB080C940000AF92BF92CF92DF9278
:10012000EF92FF920F931F93CF93DF936C017B01AC
:100130008B01040F151FEB015E01AE18BF08C0173D
:10014000D10759F06991D601ED91FC910190F081B0
:10015000E02DC6010995892B79F7C501DF91CF9173
:100160001F910F91FF90EF90DF90CF90BF90AF90D5
:100170000895FC01538D448D252F30E0842F90E0AD
:10018000821B930B541710F0CF9608950197089592
:10019000FC01918D828D981761F0A28DAE0FBF2F5B
:1001A000B11D5D968C91928D9F5F9F73928F90E0B1
:1001B00008958FEF9FEF0895FC01918D828D981720
:1001C00031F0828DE80FF11D858D90E008958FEF5D
:1001D0009FEF0895FC01918D228D892F90E0805C26
:1001E0009F4F821B91098F739927089587E991E0AA
:1001F0000E94EA0021E0892B09F420E0822F089573
:1002000080E090E0892B29F00E94F60081110C9487
:1002100000000895FC01A48DA80FB92FB11DA35AA9
:10022000BF4F2C91848D90E001968F739927848F16
:10023000A689B7892C93A089B1898C918370806439
:100240008C93938D848D981306C00288F389E02DDA
:1002500080818F7D80830895EF92FF920F931F938B
:10026000CF93DF93EC0181E0888F9B8D8C8D981369
:100270001AC0E889F989808185FF15C09FB7F89475
:10028000EE89FF896083E889F989808183708064C1
:1002900080839FBF81E090E0DF91CF911F910F910C
:1002A000FF90EF900895F62E0B8D10E00F5F1F4F1B
:1002B0000F731127E02E8C8D8E110CC00FB607FC2A
:1002C000FACFE889F989808185FFF5CFCE010E94B8
:1002D0000A01F1CFEB8DEC0FFD2FF11DE35AFF4F1B
:1002E000F0829FB7F8940B8FEA89FB898081806246
:1002F000CFCFCF93DF93EC01888D8823B9F0AA8903
:10030000BB89E889F9898C9185FD03C0808186FDD0
:100310000DC00FB607FCF7CF8C9185FFF2CF80811F
:1003200085FFEDCFCE010E940A01E9CFDF91CF9189
:100330000895833081F028F4813099F08230A9F05B
:1003400008958730A9F08830C9F08430B1F48091E5
:1003500080008F7D03C0809180008F778093800024
:10036000089584B58F7784BD089584B58F7DFBCFC4
:100370008091B0008F778093B00008958091B00095
:100380008F7DF9CFCF93DF93282F30E0F901E2552D
:10039000FF4F8491F901E656FF4FD491F901EA57D6
:1003A000FF4FC491CC23A1F081110E949901EC2F41
:1003B000F0E0EE0FFF1FE458FF4FA591B491EC91D0
:1003C000ED2381E090E009F480E0DF91CF91089582
:1003D00080E090E0FACF1F93CF93DF93282F30E097
:1003E000F901E255FF4F8491F901E656FF4FD49190
:1003F000F901EA57FF4FC491CC23A9F0162F8111C0
:100400000E949901EC2FF0E0EE0FFF1FEE58FF4F16
:10041000A591B4918FB7F894EC91111108C0D095C3
:10042000DE23DC938FBFDF91CF911F910895DE2BE8
:10043000F8CFCF93DF9390E0FC01E656FF4F249175
:100440008A579F4FFC0184918823C9F090E0880F60
:10045000991FFC01E859FF4FA591B491FC01EE589A
:10046000FF4FC591D49161110DC09FB7F8948C9145
:10047000209582238C938881282328839FBFDF9136
:10048000CF910895623051F49FB7F8943C91822F38
:10049000809583238C93E8812E2BEFCF8FB7F89430
:1004A000EC912E2B2C938FBFEACF1F93CF93DF932A
:1004B000182FEB0161E00E941902209739F460E0E7
:1004C000812FDF91CF911F910C94EB01CF3FD1058C
:1004D00011F461E0F5CFE12FF0E0E255FF4FE49138
:1004E000E33031F140F4E130B1F0E230E1F0C03816
:1004F000D1057CF7E4CFE73029F1E83059F1E43059
:10050000B1F780918000806280938000D0938B004F
:10051000C0938A0004C084B5806884BDC7BDDF91E4
:10052000CF911F91089584B5806284BDC8BDF7CF77
:1005300080918000806880938000D0938900C09370
:100540008800EDCF8091B00080688093B000C093A8
:10055000B300E5CF8091B00080628093B000C0937B
:10056000B400DDCF8E50806480937C0080917A004F
:10057000806480937A0080917A0086FDFCCF809120
:100580007800909179000895089560E084E00E94D9
:10059000EB0160E087E00E94EB0161E085E00E94F2
:1005A000EB0161E086E00C94EB0189E00E94C2015E
:1005B0000197C1F483E00E94C2010197A1F48091E8
:1005C000930190919401A0919501B09196010196AB
:1005D000A11DB11D8093930190939401A093950167
:1005E000B093960108958091930190919401A09108
:1005F0009501B09196010197A109B109EBCFFC01DA
:1006000001900020E9F73197AF01481B590BBC015D
:1006100087E991E00C948C008F929F92AF92BF92E9
:100620000F931F93CF93DF93CDB7DEB7A1970FB68C
:10063000F894DEBF0FBECDBF19A2423008F44AE0E5
:100640008E010F5D1F4F842E912CB12CA12CA50182
:1006500094010E94B306E62FB901CA01EA30F4F40E
:10066000E05DD801EE938D01232B242B252B79F708
:1006700090E080E0109719F0CD010E94FF02A19652
:100680000FB6F894DEBF0FBECDBFDF91CF911F91A3
:100690000F91BF90AF909F908F900895E95CE1CF4C
:1006A000CF93DF930E94FF02EC0186E191E00E946C
:1006B000FF028C0F9D1FDF91CF9108951F920F9223
:1006C0000FB60F9211242F933F934F935F936F9325
:1006D0007F938F939F93AF93BF93EF93FF9387E99C
:1006E00091E00E940A01FF91EF91BF91AF919F911C
:1006F0008F917F916F915F914F913F912F910F90CB
:100700000FBE0F901F9018951F920F920FB60F9269
:1007100011242F938F939F93EF93FF93E091A70161
:10072000F091A8018081E091AD01F091AE0182FDD0
:100730001BC090818091B0018F5F8F732091B101B8
:10074000821741F0E091B001F0E0E956FE4F958F3D
:100750008093B001FF91EF919F918F912F910F9016
:100760000FBE0F901F9018958081F4CF1F920F92AB
:100770000FB60F9211242F933F938F939F93AF93B4
:10078000BF9380918B0190918C01A0918D01B091CC
:100790008E0130918A0123E0230F2D3758F5019601
:1007A000A11DB11D20938A0180938B0190938C0130
:1007B000A0938D01B0938E01809186019091870165
:1007C000A0918801B09189010196A11DB11D80936E
:1007D000860190938701A0938801B0938901BF910E
:1007E000AF919F918F913F912F910F900FBE0F90DE
:1007F0001F90189526E8230F0296A11DB11DD2CF98
:100800001F920F920FB60F9211242F933F934F9385
:100810005F936F937F938F939F93AF93BF93EF9368
:10082000FF93E0910201F09103010995FF91EF918F
:10083000BF91AF919F918F917F916F915F914F91F8
:100840003F912F910F900FBE0F901F9018951F9200
:100850000F920FB60F9211242F933F934F935F93F4
:100860006F937F938F939F93AF93BF93EF93FF9378
:10087000E0910001F09101010995FF91EF91BF9185
:10088000AF919F918F917F916F915F914F913F9128
:100890002F910F900FBE0F901F901895CF93DF935D
:1008A0001F92CDB7DEB7789484B5826084BD84B5DD
:1008B000816084BD85B5826085BD85B5816085BD5B
:1008C00080916E00816080936E0010928100809113
:1008D000810082608093810080918100816080939B
:1008E0008100809180008160809380008091B100C0
:1008F00084608093B1008091B00081608093B000EB
:1009000080917A00846080937A0080917A0082607E
:1009100080937A0080917A00816080937A00809140
:100920007A00806880937A001092C10061E084E0D0
:100930000E94190261E087E00E94190261E085E0EF
:100940000E94190261E086E00E94190260E082E0E4
:100950000E94190260E083E00E94190262E08AE0CE
:100960000E94190262E088E00E94190262E089E0B8
:100970000E94190285ED92E090930101809300019D
:1009800080916900836080936900E89AE091A701F3
:10099000F091A80182E08083E091A301F091A4018D
:1009A0001082E091A501F091A6018FEC8083109256
:1009B000AF01E091AB01F091AC0186E08083E09162
:1009C000A901F091AA01808180618083E091A90151
:1009D000F091AA01808188608083E091A901F09163
:1009E000AA01808180688083E091A901F091AA0129
:1009F00080818F7D808300E010E03324339419825E
:100A000089E191E00E94FF0260919301709194014D
:100A100080919501909196010E94870720E030E037
:100A200040E751E40E943C086B017C014B015C01F2
:100A3000AC019B010E94A908882309F475C084E2D7
:100A400091E00E94FF0286E191E00E94FF022FB731
:100A5000F89480918B0190918C01A0918D01B091BF
:100A60008E012FBF40918F015091900160919101B3
:100A700070919201841B950BA60BB70B84369105E0
:100A8000A105B10508F12FB7F89480918B019091E1
:100A90008C01A0918D01B0918E012FBF80938F01A9
:100AA00090939001A0939101B09392018FE00E94E6
:100AB000B202843392400CF4CBC039820E94C5024A
:100AC00080E391E00E9450038EE00E94B2022FEF7B
:100AD00030E0DC010E94AE082FEF33E040E050E050
:100AE0000E94940669018AE00E94C201892B21F4C8
:100AF0008981882309F4B4C088E00E94C201892B4F
:100B000009F4C4C089E00E94C201892B09F4D5C050
:100B10000115110509F473CF0E94F600882309F42A
:100B20006ECF0E9400006BCF26013701E89477F862
:100B30002FEF3FEF4FE75FE7C301B2010E94A90823
:100B400081110DC02FEF3FEF4FE75FE7C301B20107
:100B50000E94510718161CF488E291E072CF2FEF23
:100B60003FEF4FE75FE4C701B6010E943708181650
:100B70001CF48CE291E065CF2FEF3FEF4FE75FEC85
:100B8000C701B6010E94510787FDF3CF20E030E096
:100B9000A901C701B6010E94510787FF0BC06DE292
:100BA00087E991E00E942C0146015701B7FAB09401
:100BB000B7F8B0942AE037ED43EA5BE3C501B4012E
:100BC0000E94E5064B015C010E9456076B017C0107
:100BD0000E9485079B01AC01C501B4010E94E40697
:100BE0004B015C014AE0C701B6010E940C036EE2B2
:100BF00087E991E00E942C0120E030E040E251E4DE
:100C0000C501B4010E943C084B015C010E945607DB
:100C10006B01F12CE12C4AE0C701B6010E940C03E4
:100C2000C701B6010E9485079B01AC01C501B40153
:100C30000E94E40620E030E040E251E40E943C08DB
:100C40000E94560790E080E04AE00E940C03FBCE31
:100C500080E10E94B202843392400CF02ECF34CF58
:100C600086E491E00E945003B60185E00E9455029F
:100C700061E087E00E94EB0160E084E00E94EB010C
:100C800070E060E086E00E94550242CF89818111C8
:100C900039CF8BE591E00E945003B60186E00E94B7
:100CA000550261E084E00E94EB0160E087E00E9471
:100CB000EB0170E060E085E0E6CF8981811128CF0B
:100CC00085E791E00E9450030E94C50221CFE7E929
:100CD000F1E01382128288EE93E0A0E0B0E084831A
:100CE0009583A683B78388E091E09183808385EC28
:100CF00090E09587848784EC90E09787868780ECE6
:100D000090E0918B808B81EC90E0938B828B82ECD6
:100D100090E0958B848B86EC90E0978B868B118E80
:100D2000128E138E148E0895052E97FB1EF40094D8
:100D30000E94AB0657FD07D00E94B30607FC03D004
:100D40004EF40C94AB0650954095309521953F4F4D
:100D50004F4F5F4F089590958095709561957F4FA7
:100D60008F4F9F4F0895A1E21A2EAA1BBB1BFD01B6
:100D70000DC0AA1FBB1FEE1FFF1FA217B307E4077A
:100D8000F50720F0A21BB30BE40BF50B661F771FD2
:100D9000881F991F1A9469F76095709580959095B2
:100DA0009B01AC01BD01CF010895A29FB001B39F8B
:100DB000C001A39F700D811D1124911DB29F700D64
:100DC000811D1124911D08955058BB27AA270E9408
:100DD000FC060C94FD070E94EF0738F00E94F6070E
:100DE00020F039F49F3F19F426F40C94EC070EF42C
:100DF000E095E7FB0C94E607E92F0E940E0858F3F4
:100E0000BA17620773078407950720F079F4A6F5EF
:100E10000C9430080EF4E0950B2EBA2FA02D0B0188
:100E2000B90190010C01CA01A0011124FF27591B2F
:100E300099F0593F50F4503E68F11A16F040A22F35
:100E4000232F342F4427585FF3CF469537952795A6
:100E5000A795F0405395C9F77EF41F16BA0B620BA5
:100E6000730B840BBAF09150A1F0FF0FBB1F661FEC
:100E7000771F881FC2F70EC0BA0F621F731F841F2F
:100E800048F4879577956795B795F7959E3F08F055
:100E9000B0CF9395880F08F09927EE0F9795879517
:100EA00008950E94C20708F481E008950E94160880
:100EB00088F09F5798F0B92F9927B751B0F0E1F01B
:100EC000660F771F881F991F1AF0BA95C9F714C0CB
:100ED000B13091F00E943008B1E008950C943008D0
:100EE000672F782F8827B85F39F0B93FCCF3869504
:100EF00077956795B395D9F73EF490958095709561
:100F000061957F4F8F4F9F4F0895E89409C097FBDD
:100F10003EF490958095709561957F4F8F4F9F4FD0
:100F20009923A9F0F92F96E9BB279395F695879514
:100F300077956795B795F111F8CFFAF4BB0F11F4D7
:100F400060FF1BC06F5F7F4F8F4F9F4F16C088237E
:100F500011F096E911C0772321F09EE8872F762FB4
:100F600005C0662371F096E8862F70E060E02AF0F5
:100F70009A95660F771F881FDAF7880F96958795E1
:100F800097F90895990F0008550FAA0BE0E8FEEFB6
:100F900016161706E807F907C0F012161306E4073D
:100FA000F50798F0621B730B840B950B39F40A2636
:100FB00061F0232B242B252B21F408950A2609F414
:100FC000A140A6958FEF811D811D089597F99F6718
:100FD00080E870E060E008959FEF80EC08950024C1
:100FE0000A941616170618060906089500240A948E
:100FF00012161306140605060895092E0394000C14
:1010000011F4882352F0BB0F40F4BF2B11F460FFA2
:1010100004C06F5F7F4F8F4F9F4F089557FD9058CB
:10102000440F551F59F05F3F71F04795880F97FBAC
:10103000991F61F09F3F79F0879508951216130666
:101040001406551FF2CF4695F1DF08C01616170695
:101050001806991FF1CF86957105610508940895CA
:10106000E894BB2766277727CB0197F908950E945C
:10107000C20708F48FEF08950E944F080C94FD07F3
:101080000E94EF0738F00E94F60720F0952311F038
:101090000C94E6070C94EC0711240C9431080E9480
:1010A0000E0870F3959FC1F3950F50E0551F629F96
:1010B000F001729FBB27F00DB11D639FAA27F00DB1
:1010C000B11DAA1F649F6627B00DA11D661F829FD8
:1010D0002227B00DA11D621F739FB00DA11D621FBD
:1010E000839FA00D611D221F749F3327A00D611DDA
:1010F000231F849F600D211D822F762F6A2F1124BC
:101100009F5750409AF0F1F088234AF0EE0FFF1FEE
:10111000BB1F661F771F881F91505040A9F79E3F45
:10112000510580F00C94E6070C9431085F3FE4F31E
:10113000983ED4F3869577956795B795F795E7959B
:101140009F5FC1F7FE2B880F911D9695879597F9A4
:1011500008950E94C207880B990B08950E94D50636
:10116000B7FF0895821B930B0895EE0FFF1F0590A4
:0A117000F491E02D0994F894FFCFEC
:10117A00C402C402000000002C018C00B9007901ED
:10118A00EA00C800DC000D0A00506F736974696FC9
:10119A006E3A20006E616E00696E66006F766600B8
:1011AA005374617475733A2053686F6F742054686E
:1011BA00726F75676800446972656374696F6E3A25
:1011CA0020436C6F636B776973650044697265636A
:1011DA0074696F6E3A20416E74692D636C6F636B2C
:1011EA0077697365005374617475733A2053746F29
:0611FA0070706564000046
:00000001FF
